{
  "contractName": "eVoting",
  "abi": [
    {
      "inputs": [
        {
          "internalType": "string",
          "name": "_name",
          "type": "string"
        }
      ],
      "payable": false,
      "stateMutability": "nonpayable",
      "type": "constructor"
    },
    {
      "anonymous": false,
      "inputs": [
        {
          "indexed": true,
          "internalType": "uint256",
          "name": "_voteIndex",
          "type": "uint256"
        }
      ],
      "name": "votedEvent",
      "type": "event"
    },
    {
      "constant": true,
      "inputs": [
        {
          "internalType": "uint256",
          "name": "",
          "type": "uint256"
        }
      ],
      "name": "candidates",
      "outputs": [
        {
          "internalType": "uint256",
          "name": "id",
          "type": "uint256"
        },
        {
          "internalType": "string",
          "name": "name",
          "type": "string"
        },
        {
          "internalType": "uint256",
          "name": "voteCount",
          "type": "uint256"
        }
      ],
      "payable": false,
      "stateMutability": "view",
      "type": "function"
    },
    {
      "constant": true,
      "inputs": [],
      "name": "electionName",
      "outputs": [
        {
          "internalType": "string",
          "name": "",
          "type": "string"
        }
      ],
      "payable": false,
      "stateMutability": "view",
      "type": "function"
    },
    {
      "constant": true,
      "inputs": [],
      "name": "noOfCandidates",
      "outputs": [
        {
          "internalType": "uint256",
          "name": "",
          "type": "uint256"
        }
      ],
      "payable": false,
      "stateMutability": "view",
      "type": "function"
    },
    {
      "constant": true,
      "inputs": [],
      "name": "owner",
      "outputs": [
        {
          "internalType": "address payable",
          "name": "",
          "type": "address"
        }
      ],
      "payable": false,
      "stateMutability": "view",
      "type": "function"
    },
    {
      "constant": true,
      "inputs": [],
      "name": "totalVotes",
      "outputs": [
        {
          "internalType": "uint256",
          "name": "",
          "type": "uint256"
        }
      ],
      "payable": false,
      "stateMutability": "view",
      "type": "function"
    },
    {
      "constant": true,
      "inputs": [
        {
          "internalType": "address",
          "name": "",
          "type": "address"
        }
      ],
      "name": "voters",
      "outputs": [
        {
          "internalType": "bool",
          "name": "voted",
          "type": "bool"
        },
        {
          "internalType": "uint256",
          "name": "vote",
          "type": "uint256"
        }
      ],
      "payable": false,
      "stateMutability": "view",
      "type": "function"
    },
    {
      "constant": false,
      "inputs": [
        {
          "internalType": "string",
          "name": "_name",
          "type": "string"
        }
      ],
      "name": "addCandidate",
      "outputs": [],
      "payable": false,
      "stateMutability": "nonpayable",
      "type": "function"
    },
    {
      "constant": false,
      "inputs": [
        {
          "internalType": "uint256",
          "name": "_voteIndex",
          "type": "uint256"
        }
      ],
      "name": "vote",
      "outputs": [],
      "payable": false,
      "stateMutability": "nonpayable",
      "type": "function"
    },
    {
      "constant": false,
      "inputs": [],
      "name": "end",
      "outputs": [],
      "payable": false,
      "stateMutability": "nonpayable",
      "type": "function"
    }
  ],
  "bytecode": "0x608060405234801561001057600080fd5b50604051610a0f380380610a0f8339818101604052602081101561003357600080fd5b810190808051604051939291908464010000000082111561005357600080fd5b90830190602082018581111561006857600080fd5b825164010000000081118282018810171561008257600080fd5b82525081516020918201929091019080838360005b838110156100af578181015183820152602001610097565b50505050905090810190601f1680156100dc5780820380516001836020036101000a031916815260200191505b506040525050600080546001600160a01b03191633179055508051610108906001906020840190610269565b506040805180820190915260078152667269746869636b60c81b6020820152610139906001600160e01b036101a316565b6040805180820190915260068152653937b9b430b760d11b6020820152610168906001600160e01b036101a316565b60408051808201909152600c81526b1c9bdcda185b88189a185d1d60a21b602082015261019d906001600160e01b036101a316565b50610304565b6000546001600160a01b031633146101ba57600080fd5b600280546001908101918290556040805160608101825292835260208084018581526000928501839052600480549485018082559352845160039094027f8a35acfbc15ff81a39ae7d344fd709f28e8600b4aa8c65c6b64bfe7fe36bd19b81019485559051805193959493610258937f8a35acfbc15ff81a39ae7d344fd709f28e8600b4aa8c65c6b64bfe7fe36bd19c909301929190910190610269565b506040820151816002015550505050565b828054600181600116156101000203166002900490600052602060002090601f016020900481019282601f106102aa57805160ff19168380011785556102d7565b828001600101855582156102d7579182015b828111156102d75782518255916020019190600101906102bc565b506102e39291506102e7565b5090565b61030191905b808211156102e357600081556001016102ed565b90565b6106fc806103136000396000f3fe608060405234801561001057600080fd5b50600436106100935760003560e01c8063462e91ec11610066578063462e91ec1461017c57806385e8e7a7146102225780638da5cb5b1461029f578063a3ec138d146102c3578063efbe1c1c1461030457610093565b80630121b93f146100985780630d15fd77146100b7578063183531a1146100d15780633477ee2e146100d9575b600080fd5b6100b5600480360360208110156100ae57600080fd5b503561030c565b005b6100bf6103ab565b60408051918252519081900360200190f35b6100bf6103b1565b6100f6600480360360208110156100ef57600080fd5b50356103b7565b6040518084815260200180602001838152602001828103825284818151815260200191508051906020019080838360005b8381101561013f578181015183820152602001610127565b50505050905090810190601f16801561016c5780820380516001836020036101000a031916815260200191505b5094505050505060405180910390f35b6100b56004803603602081101561019257600080fd5b8101906020810181356401000000008111156101ad57600080fd5b8201836020820111156101bf57600080fd5b803590602001918460018302840111640100000000831117156101e157600080fd5b91908080601f016020809104026020016040519081016040528093929190818152602001838380828437600092019190915250929550610486945050505050565b61022a61054c565b6040805160208082528351818301528351919283929083019185019080838360005b8381101561026457818101518382015260200161024c565b50505050905090810190601f1680156102915780820380516001836020036101000a031916815260200191505b509250505060405180910390f35b6102a76105d9565b604080516001600160a01b039092168252519081900360200190f35b6102e9600480360360208110156102d957600080fd5b50356001600160a01b03166105e8565b60408051921515835260208301919091528051918290030190f35b6100b5610607565b3360009081526003602052604090205460ff161561032957600080fd5b3360009081526003602052604090206001808201839055815460ff1916811790915560048054600019840190811061035d57fe5b600091825260208220600260039092020101805490920190915560058054600101905560405182917ffff3c900d938d21d0990d786e819f29b8d05c1ef587b462b939609625b684b1691a250565b60055481565b60025481565b600481815481106103c457fe5b9060005260206000209060030201600091509050806000015490806001018054600181600116156101000203166002900480601f0160208091040260200160405190810160405280929190818152602001828054600181600116156101000203166002900480156104765780601f1061044b57610100808354040283529160200191610476565b820191906000526020600020905b81548152906001019060200180831161045957829003601f168201915b5050505050908060020154905083565b6000546001600160a01b0316331461049d57600080fd5b600280546001908101918290556040805160608101825292835260208084018581526000928501839052600480549485018082559352845160039094027f8a35acfbc15ff81a39ae7d344fd709f28e8600b4aa8c65c6b64bfe7fe36bd19b8101948555905180519395949361053b937f8a35acfbc15ff81a39ae7d344fd709f28e8600b4aa8c65c6b64bfe7fe36bd19c90930192919091019061062c565b506040820151816002015550505050565b60018054604080516020600284861615610100026000190190941693909304601f810184900484028201840190925281815292918301828280156105d15780601f106105a6576101008083540402835291602001916105d1565b820191906000526020600020905b8154815290600101906020018083116105b457829003601f168201915b505050505081565b6000546001600160a01b031681565b6003602052600090815260409020805460019091015460ff9091169082565b6000546001600160a01b0316331461061e57600080fd5b6000546001600160a01b0316ff5b828054600181600116156101000203166002900490600052602060002090601f016020900481019282601f1061066d57805160ff191683800117855561069a565b8280016001018555821561069a579182015b8281111561069a57825182559160200191906001019061067f565b506106a69291506106aa565b5090565b6106c491905b808211156106a657600081556001016106b0565b9056fea265627a7a72315820726269148d6a0fbc7b6573651929121a77af6f35f90e327995010ddc2b1cca2464736f6c63430005100032",
  "source": "pragma solidity >=0.4.22 <0.9.0;\r\n \r\n\r\ncontract eVoting{\r\n struct Candidate{\r\n        uint id;\r\n        string name;\r\n        uint voteCount;\r\n    }\r\n    \r\n    struct Voter{\r\n        //bool authorized;\r\n        bool voted;\r\n        uint vote;\r\n    }\r\n    \r\n    address payable public owner;\r\n    string public electionName;\r\n    uint public noOfCandidates;\r\n    \r\n    mapping(address=>Voter) public voters;\r\n    Candidate[] public candidates;\r\n    \r\n    uint public totalVotes;\r\n    \r\n    constructor(string memory _name) public{\r\n        owner=msg.sender;\r\n        electionName=_name;\r\n        addCandidate(\"rithick\");\r\n        addCandidate(\"roshan\");\r\n        addCandidate(\"roshan bhatt\");\r\n    }\r\n\r\n     event votedEvent (\r\n        uint indexed _voteIndex\r\n    );\r\n    \r\n    modifier ownerOnly(){\r\n        require(owner==msg.sender);\r\n        _;\r\n    }\r\n    \r\n    function addCandidate(string memory _name)ownerOnly public{\r\n        noOfCandidates++;\r\n        candidates.push(Candidate(noOfCandidates,_name,0));\r\n    }\r\n    \r\n    // function getNumCandidate() public view returns(uint){\r\n    //     return candidates.length;\r\n    // }\r\n    \r\n    // function authorize(address _person) ownerOnly public{\r\n    //     voters[_person].authorized=true;\r\n    // }\r\n    \r\n    function vote(uint _voteIndex) public{\r\n        require(!voters[msg.sender].voted);\r\n        //require(voters[msg.sender].authorized);\r\n        \r\n        voters[msg.sender].vote=_voteIndex;\r\n        voters[msg.sender].voted=true;\r\n        \r\n        candidates[_voteIndex-1].voteCount+=1;\r\n        totalVotes+=1;\r\n        \r\n        emit votedEvent(_voteIndex);\r\n        \r\n    }\r\n    \r\n    function end() public ownerOnly{\r\n        selfdestruct(owner);\r\n    }\r\n}",
  "sourcePath": "D:/VIT CSE Academics/Third Semester/Blockchain and Cryptocyrrency/DA2/E-Voting-using-smart-contracts/contracts/eVoting.sol",
  "compiler": {
    "name": "solc",
    "version": "0.5.16+commit.9c3226ce.Emscripten.clang"
  },
  "schemaVersion": "3.4.1",
  "updatedAt": "2021-05-28T22:08:21.861Z",
  "networkType": "ethereum",
  "devdoc": {
    "methods": {}
  },
  "userdoc": {
    "methods": {}
  }
}