{
  "contractName": "eVoting",
  "abi": [
    {
      "inputs": [],
      "payable": false,
      "stateMutability": "nonpayable",
      "type": "constructor"
    },
    {
      "constant": true,
      "inputs": [
        {
          "internalType": "uint256",
          "name": "",
          "type": "uint256"
        }
      ],
      "name": "Candidates",
      "outputs": [
        {
          "internalType": "uint256",
          "name": "id",
          "type": "uint256"
        },
        {
          "internalType": "string",
          "name": "name",
          "type": "string"
        },
        {
          "internalType": "uint256",
          "name": "voteCount",
          "type": "uint256"
        }
      ],
      "payable": false,
      "stateMutability": "view",
      "type": "function"
    },
    {
      "constant": true,
      "inputs": [],
      "name": "candidateCount",
      "outputs": [
        {
          "internalType": "uint256",
          "name": "",
          "type": "uint256"
        }
      ],
      "payable": false,
      "stateMutability": "view",
      "type": "function"
    },
    {
      "constant": true,
      "inputs": [],
      "name": "totalVoteCount",
      "outputs": [
        {
          "internalType": "uint256",
          "name": "",
          "type": "uint256"
        }
      ],
      "payable": false,
      "stateMutability": "view",
      "type": "function"
    },
    {
      "constant": false,
      "inputs": [
        {
          "internalType": "string",
          "name": "_name",
          "type": "string"
        }
      ],
      "name": "createCandidate",
      "outputs": [],
      "payable": false,
      "stateMutability": "nonpayable",
      "type": "function"
    }
  ],
  "bytecode": "0x608060405260008055600060015534801561001957600080fd5b5060408051808201909152600c81526b149bdcda185b88109a185d1d60a21b602082015261004f906001600160e01b0361005416565b61014c565b600180548101808255604080516060810182528281526020808201868152600083850181905294855260028252929093208151815591518051919492936100a0938501929101906100b1565b506040820151816002015590505050565b828054600181600116156101000203166002900490600052602060002090601f016020900481019282601f106100f257805160ff191683800117855561011f565b8280016001018555821561011f579182015b8281111561011f578251825591602001919060010190610104565b5061012b92915061012f565b5090565b61014991905b8082111561012b5760008155600101610135565b90565b6103a28061015b6000396000f3fe608060405234801561001057600080fd5b506004361061004c5760003560e01c8063290e9212146100515780635fba7a56146100f4578063893d8f4c1461019c578063a9a981a3146101b6575b600080fd5b61006e6004803603602081101561006757600080fd5b50356101be565b6040518084815260200180602001838152602001828103825284818151815260200191508051906020019080838360005b838110156100b757818101518382015260200161009f565b50505050905090810190601f1680156100e45780820380516001836020036101000a031916815260200191505b5094505050505060405180910390f35b61019a6004803603602081101561010a57600080fd5b81019060208101813564010000000081111561012557600080fd5b82018360208201111561013757600080fd5b8035906020019184600183028401116401000000008311171561015957600080fd5b91908080601f016020809104026020016040519081016040528093929190818152602001838380828437600092019190915250929550610269945050505050565b005b6101a46102c6565b60408051918252519081900360200190f35b6101a46102cc565b60026020818152600092835260409283902080546001808301805487519281161561010002600019011695909504601f81018590048502820185019096528581529094919390929091908301828280156102595780601f1061022e57610100808354040283529160200191610259565b820191906000526020600020905b81548152906001019060200180831161023c57829003601f168201915b5050505050908060020154905083565b600180548101808255604080516060810182528281526020808201868152600083850181905294855260028252929093208151815591518051919492936102b5938501929101906102d2565b506040820151816002015590505050565b60005481565b60015481565b828054600181600116156101000203166002900490600052602060002090601f016020900481019282601f1061031357805160ff1916838001178555610340565b82800160010185558215610340579182015b82811115610340578251825591602001919060010190610325565b5061034c929150610350565b5090565b61036a91905b8082111561034c5760008155600101610356565b9056fea265627a7a72315820b8f297af1aa49733a143f3a433786c307b27ccdd9ba7a00a101838fc05b65d9964736f6c63430005100032",
  "source": "pragma solidity >=0.4.22 <0.9.0;\r\n\r\ncontract eVoting{\r\n    uint public totalVoteCount = 0;\r\n    uint public candidateCount = 0;\r\n\r\n    struct Candidate{\r\n        uint id;\r\n        string name;\r\n        uint voteCount;\r\n    }\r\n\r\n    constructor() public{\r\n        createCandidate(\"Roshan Bhatt\");\r\n    }\r\n\r\n    mapping(uint => Candidate) public Candidates;\r\n\r\n    function createCandidate(string memory _name) public{\r\n        candidateCount ++;\r\n        Candidates[candidateCount] = Candidate(candidateCount,_name,0);\r\n    }\r\n}",
  "sourcePath": "D:/VIT CSE Academics/Third Semester/Blockchain and Cryptocyrrency/DA2/E-Voting-using-smart-contracts/contracts/eVoting.sol",
  "compiler": {
    "name": "solc",
    "version": "0.5.16+commit.9c3226ce.Emscripten.clang"
  },
  "schemaVersion": "3.4.1",
  "updatedAt": "2021-05-24T17:45:34.515Z",
  "networkType": "ethereum",
  "devdoc": {
    "methods": {}
  },
  "userdoc": {
    "methods": {}
  }
}