{
  "contractName": "eVoting",
  "abi": [
    {
      "inputs": [
        {
          "internalType": "string",
          "name": "_name",
          "type": "string"
        }
      ],
      "payable": false,
      "stateMutability": "nonpayable",
      "type": "constructor"
    },
    {
      "anonymous": false,
      "inputs": [
        {
          "indexed": true,
          "internalType": "uint256",
          "name": "_voteIndex",
          "type": "uint256"
        }
      ],
      "name": "votedEvent",
      "type": "event"
    },
    {
      "constant": true,
      "inputs": [
        {
          "internalType": "uint256",
          "name": "",
          "type": "uint256"
        }
      ],
      "name": "candidates",
      "outputs": [
        {
          "internalType": "uint256",
          "name": "id",
          "type": "uint256"
        },
        {
          "internalType": "string",
          "name": "name",
          "type": "string"
        },
        {
          "internalType": "uint256",
          "name": "voteCount",
          "type": "uint256"
        }
      ],
      "payable": false,
      "stateMutability": "view",
      "type": "function"
    },
    {
      "constant": true,
      "inputs": [],
      "name": "electionName",
      "outputs": [
        {
          "internalType": "string",
          "name": "",
          "type": "string"
        }
      ],
      "payable": false,
      "stateMutability": "view",
      "type": "function"
    },
    {
      "constant": true,
      "inputs": [],
      "name": "electionStatus",
      "outputs": [
        {
          "internalType": "bool",
          "name": "",
          "type": "bool"
        }
      ],
      "payable": false,
      "stateMutability": "view",
      "type": "function"
    },
    {
      "constant": true,
      "inputs": [],
      "name": "noOfCandidates",
      "outputs": [
        {
          "internalType": "uint256",
          "name": "",
          "type": "uint256"
        }
      ],
      "payable": false,
      "stateMutability": "view",
      "type": "function"
    },
    {
      "constant": true,
      "inputs": [],
      "name": "owner",
      "outputs": [
        {
          "internalType": "address payable",
          "name": "",
          "type": "address"
        }
      ],
      "payable": false,
      "stateMutability": "view",
      "type": "function"
    },
    {
      "constant": true,
      "inputs": [],
      "name": "totalVotes",
      "outputs": [
        {
          "internalType": "uint256",
          "name": "",
          "type": "uint256"
        }
      ],
      "payable": false,
      "stateMutability": "view",
      "type": "function"
    },
    {
      "constant": true,
      "inputs": [
        {
          "internalType": "address",
          "name": "",
          "type": "address"
        }
      ],
      "name": "voters",
      "outputs": [
        {
          "internalType": "bool",
          "name": "voted",
          "type": "bool"
        },
        {
          "internalType": "uint256",
          "name": "vote",
          "type": "uint256"
        }
      ],
      "payable": false,
      "stateMutability": "view",
      "type": "function"
    },
    {
      "constant": false,
      "inputs": [
        {
          "internalType": "string",
          "name": "_name",
          "type": "string"
        }
      ],
      "name": "addCandidate",
      "outputs": [],
      "payable": false,
      "stateMutability": "nonpayable",
      "type": "function"
    },
    {
      "constant": false,
      "inputs": [
        {
          "internalType": "uint256",
          "name": "_voteIndex",
          "type": "uint256"
        }
      ],
      "name": "vote",
      "outputs": [],
      "payable": false,
      "stateMutability": "nonpayable",
      "type": "function"
    },
    {
      "constant": false,
      "inputs": [],
      "name": "end",
      "outputs": [],
      "payable": false,
      "stateMutability": "nonpayable",
      "type": "function"
    }
  ],
  "bytecode": "0x60806040526003805460ff1916600117905534801561001d57600080fd5b50604051610a62380380610a628339818101604052602081101561004057600080fd5b810190808051604051939291908464010000000082111561006057600080fd5b90830190602082018581111561007557600080fd5b825164010000000081118282018810171561008f57600080fd5b82525081516020918201929091019080838360005b838110156100bc5781810151838201526020016100a4565b50505050905090810190601f1680156100e95780820380516001836020036101000a031916815260200191505b506040525050600080546001600160a01b03191633179055508051610115906001906020840190610276565b506040805180820190915260078152667269746869636b60c81b6020820152610146906001600160e01b036101b016565b6040805180820190915260068152653937b9b430b760d11b6020820152610175906001600160e01b036101b016565b60408051808201909152600c81526b1c9bdcda185b88189a185d1d60a21b60208201526101aa906001600160e01b036101b016565b50610311565b6000546001600160a01b031633146101c757600080fd5b600280546001908101918290556040805160608101825292835260208084018581526000928501839052600580549485018082559352845160039094027f036b6384b5eca791c62761152d0c79bb0604c104a5fb6f4eb0703f3154bb3db081019485559051805193959493610265937f036b6384b5eca791c62761152d0c79bb0604c104a5fb6f4eb0703f3154bb3db1909301929190910190610276565b506040820151816002015550505050565b828054600181600116156101000203166002900490600052602060002090601f016020900481019282601f106102b757805160ff19168380011785556102e4565b828001600101855582156102e4579182015b828111156102e45782518255916020019190600101906102c9565b506102f09291506102f4565b5090565b61030e91905b808211156102f057600081556001016102fa565b90565b610742806103206000396000f3fe608060405234801561001057600080fd5b506004361061009e5760003560e01c806385e8e7a71161006657806385e8e7a71461022d5780638da5cb5b146102aa578063a3ec138d146102ce578063eaef03491461030f578063efbe1c1c1461032b5761009e565b80630121b93f146100a35780630d15fd77146100c2578063183531a1146100dc5780633477ee2e146100e4578063462e91ec14610187575b600080fd5b6100c0600480360360208110156100b957600080fd5b5035610333565b005b6100ca6103de565b60408051918252519081900360200190f35b6100ca6103e4565b610101600480360360208110156100fa57600080fd5b50356103ea565b6040518084815260200180602001838152602001828103825284818151815260200191508051906020019080838360005b8381101561014a578181015183820152602001610132565b50505050905090810190601f1680156101775780820380516001836020036101000a031916815260200191505b5094505050505060405180910390f35b6100c06004803603602081101561019d57600080fd5b8101906020810181356401000000008111156101b857600080fd5b8201836020820111156101ca57600080fd5b803590602001918460018302840111640100000000831117156101ec57600080fd5b91908080601f0160208091040260200160405190810160405280939291908181526020018383808284376000920191909152509295506104b9945050505050565b61023561057f565b6040805160208082528351818301528351919283929083019185019080838360005b8381101561026f578181015183820152602001610257565b50505050905090810190601f16801561029c5780820380516001836020036101000a031916815260200191505b509250505060405180910390f35b6102b261060c565b604080516001600160a01b039092168252519081900360200190f35b6102f4600480360360208110156102e457600080fd5b50356001600160a01b031661061b565b60408051921515835260208301919091528051918290030190f35b61031761063a565b604080519115158252519081900360200190f35b6100c0610643565b3360009081526004602052604090205460ff161561035057600080fd5b60035460ff16156103db573360009081526004602052604090206001808201839055815460ff1916811790915560058054600019840190811061038f57fe5b600091825260208220600260039092020101805490920190915560068054600101905560405182917ffff3c900d938d21d0990d786e819f29b8d05c1ef587b462b939609625b684b1691a25b50565b60065481565b60025481565b600581815481106103f757fe5b9060005260206000209060030201600091509050806000015490806001018054600181600116156101000203166002900480601f0160208091040260200160405190810160405280929190818152602001828054600181600116156101000203166002900480156104a95780601f1061047e576101008083540402835291602001916104a9565b820191906000526020600020905b81548152906001019060200180831161048c57829003601f168201915b5050505050908060020154905083565b6000546001600160a01b031633146104d057600080fd5b600280546001908101918290556040805160608101825292835260208084018581526000928501839052600580549485018082559352845160039094027f036b6384b5eca791c62761152d0c79bb0604c104a5fb6f4eb0703f3154bb3db08101948555905180519395949361056e937f036b6384b5eca791c62761152d0c79bb0604c104a5fb6f4eb0703f3154bb3db1909301929190910190610672565b506040820151816002015550505050565b60018054604080516020600284861615610100026000190190941693909304601f810184900484028201840190925281815292918301828280156106045780601f106105d957610100808354040283529160200191610604565b820191906000526020600020905b8154815290600101906020018083116105e757829003601f168201915b505050505081565b6000546001600160a01b031681565b6004602052600090815260409020805460019091015460ff9091169082565b60035460ff1681565b6000546001600160a01b0316331461065a57600080fd5b6003805460ff191690556000546001600160a01b0316ff5b828054600181600116156101000203166002900490600052602060002090601f016020900481019282601f106106b357805160ff19168380011785556106e0565b828001600101855582156106e0579182015b828111156106e05782518255916020019190600101906106c5565b506106ec9291506106f0565b5090565b61070a91905b808211156106ec57600081556001016106f6565b9056fea265627a7a723158207204d85988da904cf13a57deff5002c4ea92d9f973471e95ea14017f42bc175464736f6c63430005100032",
  "source": "pragma solidity >=0.4.22 <0.9.0;\r\n \r\n\r\ncontract eVoting{\r\n struct Candidate{\r\n        uint id;\r\n        string name;\r\n        uint voteCount;\r\n    }\r\n    \r\n    struct Voter{\r\n        //bool authorized;\r\n        bool voted;\r\n        uint vote;\r\n    }\r\n    \r\n    address payable public owner;\r\n    string public electionName;\r\n    uint public noOfCandidates;\r\n    bool public electionStatus=true;\r\n    \r\n    mapping(address=>Voter) public voters;\r\n    Candidate[] public candidates;\r\n    \r\n    uint public totalVotes;\r\n    \r\n    constructor(string memory _name) public{\r\n        owner=msg.sender;\r\n        electionName=_name;\r\n        addCandidate(\"rithick\");\r\n        addCandidate(\"roshan\");\r\n        addCandidate(\"roshan bhatt\");\r\n    }\r\n\r\n     event votedEvent (\r\n        uint indexed _voteIndex\r\n    );\r\n    \r\n    modifier ownerOnly(){\r\n        require(owner==msg.sender);\r\n        _;\r\n    }\r\n    \r\n    function addCandidate(string memory _name)ownerOnly public{\r\n        noOfCandidates++;\r\n        candidates.push(Candidate(noOfCandidates,_name,0));\r\n    }\r\n    \r\n    // function getNumCandidate() public view returns(uint){\r\n    //     return candidates.length;\r\n    // }\r\n    \r\n    // function authorize(address _person) ownerOnly public{\r\n    //     voters[_person].authorized=true;\r\n    // }\r\n    \r\n    function vote(uint _voteIndex) public{\r\n        require(!voters[msg.sender].voted);\r\n        if(electionStatus){\r\n        //require(voters[msg.sender].authorized);\r\n        \r\n        voters[msg.sender].vote=_voteIndex;\r\n        voters[msg.sender].voted=true;\r\n        \r\n        candidates[_voteIndex-1].voteCount+=1;\r\n        totalVotes+=1;\r\n        \r\n        emit votedEvent(_voteIndex);\r\n        }\r\n        \r\n    }\r\n    \r\n    function end() public ownerOnly{\r\n        electionStatus=false;\r\n        selfdestruct(owner);\r\n    }\r\n}",
  "sourcePath": "C:/Users/rrith/Documents/Blockchain/E-Voting-using-smart-contracts/contracts/eVoting.sol",
  "compiler": {
    "name": "solc",
    "version": "0.5.16+commit.9c3226ce.Emscripten.clang"
  },
  "schemaVersion": "3.2.3",
  "updatedAt": "2021-05-29T03:26:17.015Z",
  "networkType": "ethereum",
  "devdoc": {
    "methods": {}
  },
  "userdoc": {
    "methods": {}
  }
}